{
  "contractName": "Conference",
  "abi": [
    {
      "constant": true,
      "inputs": [
        {
          "name": "",
          "type": "address"
        }
      ],
      "name": "registrantsPaid",
      "outputs": [
        {
          "name": "",
          "type": "uint256"
        }
      ],
      "payable": false,
      "stateMutability": "view",
      "type": "function"
    },
    {
      "constant": true,
      "inputs": [],
      "name": "organizer",
      "outputs": [
        {
          "name": "",
          "type": "address"
        }
      ],
      "payable": false,
      "stateMutability": "view",
      "type": "function"
    },
    {
      "constant": false,
      "inputs": [
        {
          "name": "recipient",
          "type": "address"
        },
        {
          "name": "amount",
          "type": "uint256"
        }
      ],
      "name": "refundTicket",
      "outputs": [],
      "payable": true,
      "stateMutability": "payable",
      "type": "function"
    },
    {
      "constant": false,
      "inputs": [],
      "name": "destroy",
      "outputs": [],
      "payable": false,
      "stateMutability": "nonpayable",
      "type": "function"
    },
    {
      "constant": false,
      "inputs": [
        {
          "name": "newquota",
          "type": "uint256"
        }
      ],
      "name": "changeQuota",
      "outputs": [],
      "payable": false,
      "stateMutability": "nonpayable",
      "type": "function"
    },
    {
      "constant": true,
      "inputs": [],
      "name": "quota",
      "outputs": [
        {
          "name": "",
          "type": "uint256"
        }
      ],
      "payable": false,
      "stateMutability": "view",
      "type": "function"
    },
    {
      "constant": true,
      "inputs": [],
      "name": "numRegistrants",
      "outputs": [
        {
          "name": "",
          "type": "uint256"
        }
      ],
      "payable": false,
      "stateMutability": "view",
      "type": "function"
    },
    {
      "constant": false,
      "inputs": [],
      "name": "buyTicket",
      "outputs": [],
      "payable": true,
      "stateMutability": "payable",
      "type": "function"
    },
    {
      "inputs": [],
      "payable": false,
      "stateMutability": "nonpayable",
      "type": "constructor"
    },
    {
      "anonymous": false,
      "inputs": [
        {
          "indexed": false,
          "name": "_from",
          "type": "address"
        },
        {
          "indexed": false,
          "name": "_amount",
          "type": "uint256"
        }
      ],
      "name": "Deposit",
      "type": "event"
    },
    {
      "anonymous": false,
      "inputs": [
        {
          "indexed": false,
          "name": "_to",
          "type": "address"
        },
        {
          "indexed": false,
          "name": "_amount",
          "type": "uint256"
        }
      ],
      "name": "Refund",
      "type": "event"
    }
  ],
  "bytecode": "0x6060604052341561000f57600080fd5b336000806101000a81548173ffffffffffffffffffffffffffffffffffffffff021916908373ffffffffffffffffffffffffffffffffffffffff1602179055506019600381905550600060028190555061060d8061006e6000396000f30060606040526004361061008e576000357c0100000000000000000000000000000000000000000000000000000000900463ffffffff16806313381fbf1461009357806361203265146100e0578063705099b91461013557806383197ef01461016c578063a977c71e14610181578063cebe09c9146101a4578063ec3a6f73146101cd578063edca914c146101f6575b600080fd5b341561009e57600080fd5b6100ca600480803573ffffffffffffffffffffffffffffffffffffffff16906020019091905050610200565b6040518082815260200191505060405180910390f35b34156100eb57600080fd5b6100f3610218565b604051808273ffffffffffffffffffffffffffffffffffffffff1673ffffffffffffffffffffffffffffffffffffffff16815260200191505060405180910390f35b61016a600480803573ffffffffffffffffffffffffffffffffffffffff1690602001909190803590602001909190505061023d565b005b341561017757600080fd5b61017f610409565b005b341561018c57600080fd5b6101a2600480803590602001909190505061049a565b005b34156101af57600080fd5b6101b7610500565b6040518082815260200191505060405180910390f35b34156101d857600080fd5b6101e0610506565b6040518082815260200191505060405180910390f35b6101fe61050c565b005b60016020528060005260406000206000915090505481565b6000809054906101000a900473ffffffffffffffffffffffffffffffffffffffff1681565b6000809054906101000a900473ffffffffffffffffffffffffffffffffffffffff1673ffffffffffffffffffffffffffffffffffffffff163373ffffffffffffffffffffffffffffffffffffffff1614151561029857610405565b80600160008473ffffffffffffffffffffffffffffffffffffffff1673ffffffffffffffffffffffffffffffffffffffff16815260200190815260200160002054141561040457803073ffffffffffffffffffffffffffffffffffffffff1631101515610403576000600160008473ffffffffffffffffffffffffffffffffffffffff1673ffffffffffffffffffffffffffffffffffffffff16815260200190815260200160002081905550600260008154809291906001900391905055507fbb28353e4598c3b9199101a66e0989549b659a59a54d2c27fbb183f1932c8e6d8282604051808373ffffffffffffffffffffffffffffffffffffffff1673ffffffffffffffffffffffffffffffffffffffff1681526020018281526020019250505060405180910390a18173ffffffffffffffffffffffffffffffffffffffff166108fc829081150290604051600060405180830381858888f19350505050151561040257600080fd5b5b5b5b5050565b6000809054906101000a900473ffffffffffffffffffffffffffffffffffffffff1673ffffffffffffffffffffffffffffffffffffffff163373ffffffffffffffffffffffffffffffffffffffff161415610498576000809054906101000a900473ffffffffffffffffffffffffffffffffffffffff1673ffffffffffffffffffffffffffffffffffffffff16ff5b565b6000809054906101000a900473ffffffffffffffffffffffffffffffffffffffff1673ffffffffffffffffffffffffffffffffffffffff163373ffffffffffffffffffffffffffffffffffffffff161415156104f5576104fd565b806003819055505b50565b60035481565b60025481565b60035460025410151561051e57600080fd5b34600160003373ffffffffffffffffffffffffffffffffffffffff1673ffffffffffffffffffffffffffffffffffffffff168152602001908152602001600020819055506002600081548092919060010191905055507fe1fffcc4923d04b559f4d29a8bfc6cda04eb5b0d3c460751c2402c5c5cc9109c3334604051808373ffffffffffffffffffffffffffffffffffffffff1673ffffffffffffffffffffffffffffffffffffffff1681526020018281526020019250505060405180910390a15600a165627a7a72305820343ded2aca4e8c87b62d7da0faf14f07772093b79f06540d1bc03cc536507efd0029",
  "source": "pragma solidity ^0.4.4;\r\n\r\ncontract Conference { \r\n  address public organizer; // este es el due�o\r\n  mapping (address => uint) public registrantsPaid; //aca almaceno cuanto pago cada registrante. Lo uso para devolver los fondos\r\n  uint public numRegistrants;\r\n  uint public quota;\r\n\r\n\tevent Deposit(address _from, uint _amount); // para loguear el evento buyTicket() \r\n\tevent Refund(address _to, uint _amount); // para loguear el evento refundTicket()\r\n  \r\n  function Conference() public {\r\n    organizer = msg.sender;\r\n    quota = 25; // cupo de registrantes\r\n    numRegistrants = 0;\r\n  }\r\n  \r\n\tfunction buyTicket() payable public {\r\n\t\tif (numRegistrants >= quota) { \r\n\t\t\tthrow; // si el numero de registrantes excede la cuota se ejecuta un throw para devolveerle el dinero\r\n\t\t}\r\n     registrantsPaid[msg.sender] = msg.value;\r\n     numRegistrants++;\r\n     Deposit(msg.sender, msg.value);\r\n  }\r\n\r\n  function changeQuota(uint newquota) public {\r\n    if (msg.sender != organizer) { return; }\r\n    quota = newquota;\r\n  }\r\n\r\n\tfunction refundTicket(address recipient, uint amount) payable public {\r\n\t\tif (msg.sender != organizer) { return; }\r\n  if (registrantsPaid[recipient] == amount) {\r\n    \r\n    if (this.balance >= amount) { //this es el address del contrato\r\n      registrantsPaid[recipient] = 0; //para evitar el bug de reentry de DAO tengo que ejecutar esto antes de hacer el send del monto\r\n        numRegistrants--;\r\n        Refund(recipient, amount);\r\n        recipient.transfer(amount);\r\n    }\r\n  }\r\n  return;\r\n}\r\n\r\n  // tengo que agregarle un require para que esta funcion no sea ejecutada por nadie mas que el owner del contrato\r\n  function destroy() public { // so funds not locked in contract forever\r\n  \t\r\n  // probar esto si es igual a lo de abajo require(msg.sender == owner)\r\n    if (msg.sender == organizer) { // solo si lo ejecuta el due�o\r\n      selfdestruct(organizer); // devolver los fondos al due�o\r\n    }\r\n  }\r\n}",
  "sourcePath": "C:\\Users\\Santiago\\examen2\\contracts\\Conference.sol",
  "compiler": {
    "name": "solc",
    "version": "0.4.18+commit.9cf6e910.Emscripten.clang"
  },
  "schemaVersion": "1.0.1",
  "updatedAt": "2017-12-05T21:50:47.934Z"
}